{
  "_format": "hh-sol-artifact-1",
  "contractName": "Collection",
  "sourceName": "contracts/Collection.sol",
  "abi": [
    {
      "inputs": [],
      "stateMutability": "nonpayable",
      "type": "constructor"
    },
    {
      "anonymous": false,
      "inputs": [
        {
          "indexed": true,
          "internalType": "address",
          "name": "owner",
          "type": "address"
        },
        {
          "indexed": true,
          "internalType": "address",
          "name": "approved",
          "type": "address"
        },
        {
          "indexed": true,
          "internalType": "uint256",
          "name": "tokenId",
          "type": "uint256"
        }
      ],
      "name": "Approval",
      "type": "event"
    },
    {
      "anonymous": false,
      "inputs": [
        {
          "indexed": true,
          "internalType": "address",
          "name": "owner",
          "type": "address"
        },
        {
          "indexed": true,
          "internalType": "address",
          "name": "operator",
          "type": "address"
        },
        {
          "indexed": false,
          "internalType": "bool",
          "name": "approved",
          "type": "bool"
        }
      ],
      "name": "ApprovalForAll",
      "type": "event"
    },
    {
      "anonymous": false,
      "inputs": [
        {
          "indexed": true,
          "internalType": "address",
          "name": "previousOwner",
          "type": "address"
        },
        {
          "indexed": true,
          "internalType": "address",
          "name": "newOwner",
          "type": "address"
        }
      ],
      "name": "OwnershipTransferred",
      "type": "event"
    },
    {
      "anonymous": false,
      "inputs": [
        {
          "indexed": true,
          "internalType": "address",
          "name": "from",
          "type": "address"
        },
        {
          "indexed": true,
          "internalType": "address",
          "name": "to",
          "type": "address"
        },
        {
          "indexed": true,
          "internalType": "uint256",
          "name": "tokenId",
          "type": "uint256"
        }
      ],
      "name": "Transfer",
      "type": "event"
    },
    {
      "inputs": [],
      "name": "LIMIT_PER_ADDRESS",
      "outputs": [
        {
          "internalType": "uint256",
          "name": "",
          "type": "uint256"
        }
      ],
      "stateMutability": "view",
      "type": "function"
    },
    {
      "inputs": [],
      "name": "MAX_SUPPLY",
      "outputs": [
        {
          "internalType": "uint256",
          "name": "",
          "type": "uint256"
        }
      ],
      "stateMutability": "view",
      "type": "function"
    },
    {
      "inputs": [],
      "name": "PRICE_PRE_TOKEN",
      "outputs": [
        {
          "internalType": "uint256",
          "name": "",
          "type": "uint256"
        }
      ],
      "stateMutability": "view",
      "type": "function"
    },
    {
      "inputs": [
        {
          "internalType": "address",
          "name": "to",
          "type": "address"
        },
        {
          "internalType": "uint256",
          "name": "tokenId",
          "type": "uint256"
        }
      ],
      "name": "approve",
      "outputs": [],
      "stateMutability": "nonpayable",
      "type": "function"
    },
    {
      "inputs": [
        {
          "internalType": "address",
          "name": "owner",
          "type": "address"
        }
      ],
      "name": "balanceOf",
      "outputs": [
        {
          "internalType": "uint256",
          "name": "",
          "type": "uint256"
        }
      ],
      "stateMutability": "view",
      "type": "function"
    },
    {
      "inputs": [
        {
          "internalType": "uint256",
          "name": "tokenId",
          "type": "uint256"
        }
      ],
      "name": "getApproved",
      "outputs": [
        {
          "internalType": "address",
          "name": "",
          "type": "address"
        }
      ],
      "stateMutability": "view",
      "type": "function"
    },
    {
      "inputs": [
        {
          "internalType": "address",
          "name": "owner",
          "type": "address"
        },
        {
          "internalType": "address",
          "name": "operator",
          "type": "address"
        }
      ],
      "name": "isApprovedForAll",
      "outputs": [
        {
          "internalType": "bool",
          "name": "",
          "type": "bool"
        }
      ],
      "stateMutability": "view",
      "type": "function"
    },
    {
      "inputs": [
        {
          "internalType": "uint256",
          "name": "supply",
          "type": "uint256"
        }
      ],
      "name": "maxSupply",
      "outputs": [],
      "stateMutability": "nonpayable",
      "type": "function"
    },
    {
      "inputs": [
        {
          "internalType": "string",
          "name": "tokenURI",
          "type": "string"
        }
      ],
      "name": "mintNFT",
      "outputs": [
        {
          "internalType": "uint256",
          "name": "",
          "type": "uint256"
        }
      ],
      "stateMutability": "payable",
      "type": "function"
    },
    {
      "inputs": [],
      "name": "name",
      "outputs": [
        {
          "internalType": "string",
          "name": "",
          "type": "string"
        }
      ],
      "stateMutability": "view",
      "type": "function"
    },
    {
      "inputs": [],
      "name": "owner",
      "outputs": [
        {
          "internalType": "address",
          "name": "",
          "type": "address"
        }
      ],
      "stateMutability": "view",
      "type": "function"
    },
    {
      "inputs": [
        {
          "internalType": "uint256",
          "name": "tokenId",
          "type": "uint256"
        }
      ],
      "name": "ownerOf",
      "outputs": [
        {
          "internalType": "address",
          "name": "",
          "type": "address"
        }
      ],
      "stateMutability": "view",
      "type": "function"
    },
    {
      "inputs": [],
      "name": "renounceOwnership",
      "outputs": [],
      "stateMutability": "nonpayable",
      "type": "function"
    },
    {
      "inputs": [
        {
          "internalType": "address",
          "name": "from",
          "type": "address"
        },
        {
          "internalType": "address",
          "name": "to",
          "type": "address"
        },
        {
          "internalType": "uint256",
          "name": "tokenId",
          "type": "uint256"
        }
      ],
      "name": "safeTransferFrom",
      "outputs": [],
      "stateMutability": "nonpayable",
      "type": "function"
    },
    {
      "inputs": [
        {
          "internalType": "address",
          "name": "from",
          "type": "address"
        },
        {
          "internalType": "address",
          "name": "to",
          "type": "address"
        },
        {
          "internalType": "uint256",
          "name": "tokenId",
          "type": "uint256"
        },
        {
          "internalType": "bytes",
          "name": "_data",
          "type": "bytes"
        }
      ],
      "name": "safeTransferFrom",
      "outputs": [],
      "stateMutability": "nonpayable",
      "type": "function"
    },
    {
      "inputs": [
        {
          "internalType": "address",
          "name": "operator",
          "type": "address"
        },
        {
          "internalType": "bool",
          "name": "approved",
          "type": "bool"
        }
      ],
      "name": "setApprovalForAll",
      "outputs": [],
      "stateMutability": "nonpayable",
      "type": "function"
    },
    {
      "inputs": [
        {
          "internalType": "uint256",
          "name": "limit",
          "type": "uint256"
        }
      ],
      "name": "setLimit",
      "outputs": [],
      "stateMutability": "nonpayable",
      "type": "function"
    },
    {
      "inputs": [
        {
          "internalType": "uint256",
          "name": "price",
          "type": "uint256"
        }
      ],
      "name": "setPrice",
      "outputs": [],
      "stateMutability": "nonpayable",
      "type": "function"
    },
    {
      "inputs": [
        {
          "internalType": "bytes4",
          "name": "interfaceId",
          "type": "bytes4"
        }
      ],
      "name": "supportsInterface",
      "outputs": [
        {
          "internalType": "bool",
          "name": "",
          "type": "bool"
        }
      ],
      "stateMutability": "view",
      "type": "function"
    },
    {
      "inputs": [],
      "name": "symbol",
      "outputs": [
        {
          "internalType": "string",
          "name": "",
          "type": "string"
        }
      ],
      "stateMutability": "view",
      "type": "function"
    },
    {
      "inputs": [
        {
          "internalType": "uint256",
          "name": "tokenId",
          "type": "uint256"
        }
      ],
      "name": "tokenURI",
      "outputs": [
        {
          "internalType": "string",
          "name": "",
          "type": "string"
        }
      ],
      "stateMutability": "view",
      "type": "function"
    },
    {
      "inputs": [
        {
          "internalType": "address",
          "name": "from",
          "type": "address"
        },
        {
          "internalType": "address",
          "name": "to",
          "type": "address"
        },
        {
          "internalType": "uint256",
          "name": "tokenId",
          "type": "uint256"
        }
      ],
      "name": "transferFrom",
      "outputs": [],
      "stateMutability": "nonpayable",
      "type": "function"
    },
    {
      "inputs": [
        {
          "internalType": "address",
          "name": "newOwner",
          "type": "address"
        }
      ],
      "name": "transferOwnership",
      "outputs": [],
      "stateMutability": "nonpayable",
      "type": "function"
    },
    {
      "inputs": [],
      "name": "withdrawMoney",
      "outputs": [],
      "stateMutability": "nonpayable",
      "type": "function"
    }
  ],
  "bytecode": "0x6080604052662386f26fc10000600c556002600d556005600e553480156200002657600080fd5b506040518060400160405280600a81526020017f436f6c6c656374696f6e000000000000000000000000000000000000000000008152506040518060400160405280600381526020017f4e465400000000000000000000000000000000000000000000000000000000008152508160009080519060200190620000ab929190620001bb565b508060019080519060200190620000c4929190620001bb565b505050620000e7620000db620000ed60201b60201c565b620000f560201b60201c565b620002d0565b600033905090565b6000600760009054906101000a900473ffffffffffffffffffffffffffffffffffffffff16905081600760006101000a81548173ffffffffffffffffffffffffffffffffffffffff021916908373ffffffffffffffffffffffffffffffffffffffff1602179055508173ffffffffffffffffffffffffffffffffffffffff168173ffffffffffffffffffffffffffffffffffffffff167f8be0079c531659141344cd1fd0a4f28419497f9722a3daafe3b4186f6b6457e060405160405180910390a35050565b828054620001c9906200026b565b90600052602060002090601f016020900481019282620001ed576000855562000239565b82601f106200020857805160ff191683800117855562000239565b8280016001018555821562000239579182015b82811115620002385782518255916020019190600101906200021b565b5b5090506200024891906200024c565b5090565b5b80821115620002675760008160009055506001016200024d565b5090565b600060028204905060018216806200028457607f821691505b602082108114156200029b576200029a620002a1565b5b50919050565b7f4e487b7100000000000000000000000000000000000000000000000000000000600052602260045260246000fd5b6137f680620002e06000396000f3fe60806040526004361061014b5760003560e01c8063869f7594116100b6578063b88d4fde1161006f578063b88d4fde14610468578063bb6abb8814610491578063c87b56dd146104bc578063e985e9c5146104f9578063f2fde38b14610536578063fb37e8831461055f5761014b565b8063869f7594146103805780638da5cb5b146103a957806391b7f5ed146103d457806395d89b41146103fd578063a22cb46514610428578063ac446002146104515761014b565b806332cb6b0c1161010857806332cb6b0c14610270578063417bac1a1461029b57806342842e0e146102c65780636352211e146102ef57806370a082311461032c578063715018a6146103695761014b565b806301ffc9a71461015057806306fdde031461018d578063081812fc146101b8578063095ea7b3146101f557806323b872dd1461021e57806327ea6f2b14610247575b600080fd5b34801561015c57600080fd5b5061017760048036038101906101729190612559565b61058f565b6040516101849190612a89565b60405180910390f35b34801561019957600080fd5b506101a2610671565b6040516101af9190612aa4565b60405180910390f35b3480156101c457600080fd5b506101df60048036038101906101da91906125ec565b610703565b6040516101ec9190612a22565b60405180910390f35b34801561020157600080fd5b5061021c6004803603810190610217919061251d565b610788565b005b34801561022a57600080fd5b5061024560048036038101906102409190612417565b6108a0565b005b34801561025357600080fd5b5061026e600480360381019061026991906125ec565b610900565b005b34801561027c57600080fd5b50610285610986565b6040516102929190612d86565b60405180910390f35b3480156102a757600080fd5b506102b061098c565b6040516102bd9190612d86565b60405180910390f35b3480156102d257600080fd5b506102ed60048036038101906102e89190612417565b610992565b005b3480156102fb57600080fd5b50610316600480360381019061031191906125ec565b6109b2565b6040516103239190612a22565b60405180910390f35b34801561033857600080fd5b50610353600480360381019061034e91906123b2565b610a64565b6040516103609190612d86565b60405180910390f35b34801561037557600080fd5b5061037e610b1c565b005b34801561038c57600080fd5b506103a760048036038101906103a291906125ec565b610ba4565b005b3480156103b557600080fd5b506103be610c2a565b6040516103cb9190612a22565b60405180910390f35b3480156103e057600080fd5b506103fb60048036038101906103f691906125ec565b610c54565b005b34801561040957600080fd5b50610412610cda565b60405161041f9190612aa4565b60405180910390f35b34801561043457600080fd5b5061044f600480360381019061044a91906124e1565b610d6c565b005b34801561045d57600080fd5b50610466610d82565b005b34801561047457600080fd5b5061048f600480360381019061048a9190612466565b610e4d565b005b34801561049d57600080fd5b506104a6610eaf565b6040516104b39190612d86565b60405180910390f35b3480156104c857600080fd5b506104e360048036038101906104de91906125ec565b610eb5565b6040516104f09190612aa4565b60405180910390f35b34801561050557600080fd5b50610520600480360381019061051b91906123db565b611007565b60405161052d9190612a89565b60405180910390f35b34801561054257600080fd5b5061055d600480360381019061055891906123b2565b61109b565b005b610579600480360381019061057491906125ab565b611193565b6040516105869190612d86565b60405180910390f35b60007f80ac58cd000000000000000000000000000000000000000000000000000000007bffffffffffffffffffffffffffffffffffffffffffffffffffffffff1916827bffffffffffffffffffffffffffffffffffffffffffffffffffffffff1916148061065a57507f5b5e139f000000000000000000000000000000000000000000000000000000007bffffffffffffffffffffffffffffffffffffffffffffffffffffffff1916827bffffffffffffffffffffffffffffffffffffffffffffffffffffffff1916145b8061066a5750610669826113ca565b5b9050919050565b60606000805461068090613020565b80601f01602080910402602001604051908101604052809291908181526020018280546106ac90613020565b80156106f95780601f106106ce576101008083540402835291602001916106f9565b820191906000526020600020905b8154815290600101906020018083116106dc57829003601f168201915b5050505050905090565b600061070e82611434565b61074d576040517f08c379a000000000000000000000000000000000000000000000000000000000815260040161074490612cc6565b60405180910390fd5b6004600083815260200190815260200160002060009054906101000a900473ffffffffffffffffffffffffffffffffffffffff169050919050565b6000610793826109b2565b90508073ffffffffffffffffffffffffffffffffffffffff168373ffffffffffffffffffffffffffffffffffffffff161415610804576040517f08c379a00000000000000000000000000000000000000000000000000000000081526004016107fb90612d26565b60405180910390fd5b8073ffffffffffffffffffffffffffffffffffffffff166108236114a0565b73ffffffffffffffffffffffffffffffffffffffff16148061085257506108518161084c6114a0565b611007565b5b610891576040517f08c379a000000000000000000000000000000000000000000000000000000000815260040161088890612be6565b60405180910390fd5b61089b83836114a8565b505050565b6108b16108ab6114a0565b82611561565b6108f0576040517f08c379a00000000000000000000000000000000000000000000000000000000081526004016108e790612d46565b60405180910390fd5b6108fb83838361163f565b505050565b6109086114a0565b73ffffffffffffffffffffffffffffffffffffffff16610926610c2a565b73ffffffffffffffffffffffffffffffffffffffff161461097c576040517f08c379a000000000000000000000000000000000000000000000000000000000815260040161097390612ce6565b60405180910390fd5b80600d8190555050565b600e5481565b600d5481565b6109ad83838360405180602001604052806000815250610e4d565b505050565b6000806002600084815260200190815260200160002060009054906101000a900473ffffffffffffffffffffffffffffffffffffffff169050600073ffffffffffffffffffffffffffffffffffffffff168173ffffffffffffffffffffffffffffffffffffffff161415610a5b576040517f08c379a0000000000000000000000000000000000000000000000000000000008152600401610a5290612c26565b60405180910390fd5b80915050919050565b60008073ffffffffffffffffffffffffffffffffffffffff168273ffffffffffffffffffffffffffffffffffffffff161415610ad5576040517f08c379a0000000000000000000000000000000000000000000000000000000008152600401610acc90612c06565b60405180910390fd5b600360008373ffffffffffffffffffffffffffffffffffffffff1673ffffffffffffffffffffffffffffffffffffffff168152602001908152602001600020549050919050565b610b246114a0565b73ffffffffffffffffffffffffffffffffffffffff16610b42610c2a565b73ffffffffffffffffffffffffffffffffffffffff1614610b98576040517f08c379a0000000000000000000000000000000000000000000000000000000008152600401610b8f90612ce6565b60405180910390fd5b610ba260006118a6565b565b610bac6114a0565b73ffffffffffffffffffffffffffffffffffffffff16610bca610c2a565b73ffffffffffffffffffffffffffffffffffffffff1614610c20576040517f08c379a0000000000000000000000000000000000000000000000000000000008152600401610c1790612ce6565b60405180910390fd5b80600e8190555050565b6000600760009054906101000a900473ffffffffffffffffffffffffffffffffffffffff16905090565b610c5c6114a0565b73ffffffffffffffffffffffffffffffffffffffff16610c7a610c2a565b73ffffffffffffffffffffffffffffffffffffffff1614610cd0576040517f08c379a0000000000000000000000000000000000000000000000000000000008152600401610cc790612ce6565b60405180910390fd5b80600c8190555050565b606060018054610ce990613020565b80601f0160208091040260200160405190810160405280929190818152602001828054610d1590613020565b8015610d625780601f10610d3757610100808354040283529160200191610d62565b820191906000526020600020905b815481529060010190602001808311610d4557829003601f168201915b5050505050905090565b610d7e610d776114a0565b838361196c565b5050565b610d8a6114a0565b73ffffffffffffffffffffffffffffffffffffffff16610da8610c2a565b73ffffffffffffffffffffffffffffffffffffffff1614610dfe576040517f08c379a0000000000000000000000000000000000000000000000000000000008152600401610df590612ce6565b60405180910390fd5b60003390508073ffffffffffffffffffffffffffffffffffffffff166108fc479081150290604051600060405180830381858888f19350505050158015610e49573d6000803e3d6000fd5b5050565b610e5e610e586114a0565b83611561565b610e9d576040517f08c379a0000000000000000000000000000000000000000000000000000000008152600401610e9490612d46565b60405180910390fd5b610ea984848484611ad9565b50505050565b600c5481565b6060610ec082611434565b610eff576040517f08c379a0000000000000000000000000000000000000000000000000000000008152600401610ef690612ca6565b60405180910390fd5b6000600660008481526020019081526020016000208054610f1f90613020565b80601f0160208091040260200160405190810160405280929190818152602001828054610f4b90613020565b8015610f985780601f10610f6d57610100808354040283529160200191610f98565b820191906000526020600020905b815481529060010190602001808311610f7b57829003601f168201915b505050505090506000610fa9611b35565b9050600081511415610fbf578192505050611002565b600082511115610ff4578082604051602001610fdc9291906129fe565b60405160208183030381529060405292505050611002565b610ffd84611b4c565b925050505b919050565b6000600560008473ffffffffffffffffffffffffffffffffffffffff1673ffffffffffffffffffffffffffffffffffffffff16815260200190815260200160002060008373ffffffffffffffffffffffffffffffffffffffff1673ffffffffffffffffffffffffffffffffffffffff16815260200190815260200160002060009054906101000a900460ff16905092915050565b6110a36114a0565b73ffffffffffffffffffffffffffffffffffffffff166110c1610c2a565b73ffffffffffffffffffffffffffffffffffffffff1614611117576040517f08c379a000000000000000000000000000000000000000000000000000000000815260040161110e90612ce6565b60405180910390fd5b600073ffffffffffffffffffffffffffffffffffffffff168173ffffffffffffffffffffffffffffffffffffffff161415611187576040517f08c379a000000000000000000000000000000000000000000000000000000000815260040161117e90612ae6565b60405180910390fd5b611190816118a6565b50565b600034600c5411156111da576040517f08c379a00000000000000000000000000000000000000000000000000000000081526004016111d190612c66565b60405180910390fd5b600d54600a60003373ffffffffffffffffffffffffffffffffffffffff1673ffffffffffffffffffffffffffffffffffffffff16815260200190815260200160002060009054906101000a900460ff1660ff161061126d576040517f08c379a000000000000000000000000000000000000000000000000000000000815260040161126490612d66565b60405180910390fd5b600e54600161127c6009611bf3565b6112869190612e6b565b11156112c7576040517f08c379a00000000000000000000000000000000000000000000000000000000081526004016112be90612bc6565b60405180910390fd5b6000600b836040516112d991906129e7565b908152602001604051809103902060009054906101000a900460ff1660ff1614611338576040517f08c379a000000000000000000000000000000000000000000000000000000000815260040161132f90612ba6565b60405180910390fd5b6001600b8360405161134a91906129e7565b908152602001604051809103902060008282829054906101000a900460ff166113739190612ec1565b92506101000a81548160ff021916908360ff1602179055506113956008611c01565b61139f6009611c01565b60006113ab6008611bf3565b90506113b73382611c17565b6113c18184611df1565b80915050919050565b60007f01ffc9a7000000000000000000000000000000000000000000000000000000007bffffffffffffffffffffffffffffffffffffffffffffffffffffffff1916827bffffffffffffffffffffffffffffffffffffffffffffffffffffffff1916149050919050565b60008073ffffffffffffffffffffffffffffffffffffffff166002600084815260200190815260200160002060009054906101000a900473ffffffffffffffffffffffffffffffffffffffff1673ffffffffffffffffffffffffffffffffffffffff1614159050919050565b600033905090565b816004600083815260200190815260200160002060006101000a81548173ffffffffffffffffffffffffffffffffffffffff021916908373ffffffffffffffffffffffffffffffffffffffff160217905550808273ffffffffffffffffffffffffffffffffffffffff1661151b836109b2565b73ffffffffffffffffffffffffffffffffffffffff167f8c5be1e5ebec7d5bd14f71427d1e84f3dd0314c0f7b2291e5b200ac8c7c3b92560405160405180910390a45050565b600061156c82611434565b6115ab576040517f08c379a00000000000000000000000000000000000000000000000000000000081526004016115a290612b86565b60405180910390fd5b60006115b6836109b2565b90508073ffffffffffffffffffffffffffffffffffffffff168473ffffffffffffffffffffffffffffffffffffffff16148061162557508373ffffffffffffffffffffffffffffffffffffffff1661160d84610703565b73ffffffffffffffffffffffffffffffffffffffff16145b8061163657506116358185611007565b5b91505092915050565b8273ffffffffffffffffffffffffffffffffffffffff1661165f826109b2565b73ffffffffffffffffffffffffffffffffffffffff16146116b5576040517f08c379a00000000000000000000000000000000000000000000000000000000081526004016116ac90612b06565b60405180910390fd5b600073ffffffffffffffffffffffffffffffffffffffff168273ffffffffffffffffffffffffffffffffffffffff161415611725576040517f08c379a000000000000000000000000000000000000000000000000000000000815260040161171c90612b46565b60405180910390fd5b611730838383611e65565b61173b6000826114a8565b6001600360008573ffffffffffffffffffffffffffffffffffffffff1673ffffffffffffffffffffffffffffffffffffffff168152602001908152602001600020600082825461178b9190612f29565b925050819055506001600360008473ffffffffffffffffffffffffffffffffffffffff1673ffffffffffffffffffffffffffffffffffffffff16815260200190815260200160002060008282546117e29190612e6b565b92505081905550816002600083815260200190815260200160002060006101000a81548173ffffffffffffffffffffffffffffffffffffffff021916908373ffffffffffffffffffffffffffffffffffffffff160217905550808273ffffffffffffffffffffffffffffffffffffffff168473ffffffffffffffffffffffffffffffffffffffff167fddf252ad1be2c89b69c2b068fc378daa952ba7f163c4a11628f55a4df523b3ef60405160405180910390a46118a1838383611e6a565b505050565b6000600760009054906101000a900473ffffffffffffffffffffffffffffffffffffffff16905081600760006101000a81548173ffffffffffffffffffffffffffffffffffffffff021916908373ffffffffffffffffffffffffffffffffffffffff1602179055508173ffffffffffffffffffffffffffffffffffffffff168173ffffffffffffffffffffffffffffffffffffffff167f8be0079c531659141344cd1fd0a4f28419497f9722a3daafe3b4186f6b6457e060405160405180910390a35050565b8173ffffffffffffffffffffffffffffffffffffffff168373ffffffffffffffffffffffffffffffffffffffff1614156119db576040517f08c379a00000000000000000000000000000000000000000000000000000000081526004016119d290612b66565b60405180910390fd5b80600560008573ffffffffffffffffffffffffffffffffffffffff1673ffffffffffffffffffffffffffffffffffffffff16815260200190815260200160002060008473ffffffffffffffffffffffffffffffffffffffff1673ffffffffffffffffffffffffffffffffffffffff16815260200190815260200160002060006101000a81548160ff0219169083151502179055508173ffffffffffffffffffffffffffffffffffffffff168373ffffffffffffffffffffffffffffffffffffffff167f17307eab39ab6107e8899845ad3d59bd9653f200f220920489ca2b5937696c3183604051611acc9190612a89565b60405180910390a3505050565b611ae484848461163f565b611af084848484611e6f565b611b2f576040517f08c379a0000000000000000000000000000000000000000000000000000000008152600401611b2690612ac6565b60405180910390fd5b50505050565b606060405180602001604052806000815250905090565b6060611b5782611434565b611b96576040517f08c379a0000000000000000000000000000000000000000000000000000000008152600401611b8d90612d06565b60405180910390fd5b6000611ba0611b35565b90506000815111611bc05760405180602001604052806000815250611beb565b80611bca84612006565b604051602001611bdb9291906129fe565b6040516020818303038152906040525b915050919050565b600081600001549050919050565b6001816000016000828254019250508190555050565b600073ffffffffffffffffffffffffffffffffffffffff168273ffffffffffffffffffffffffffffffffffffffff161415611c87576040517f08c379a0000000000000000000000000000000000000000000000000000000008152600401611c7e90612c86565b60405180910390fd5b611c9081611434565b15611cd0576040517f08c379a0000000000000000000000000000000000000000000000000000000008152600401611cc790612b26565b60405180910390fd5b611cdc60008383611e65565b6001600360008473ffffffffffffffffffffffffffffffffffffffff1673ffffffffffffffffffffffffffffffffffffffff1681526020019081526020016000206000828254611d2c9190612e6b565b92505081905550816002600083815260200190815260200160002060006101000a81548173ffffffffffffffffffffffffffffffffffffffff021916908373ffffffffffffffffffffffffffffffffffffffff160217905550808273ffffffffffffffffffffffffffffffffffffffff16600073ffffffffffffffffffffffffffffffffffffffff167fddf252ad1be2c89b69c2b068fc378daa952ba7f163c4a11628f55a4df523b3ef60405160405180910390a4611ded60008383611e6a565b5050565b611dfa82611434565b611e39576040517f08c379a0000000000000000000000000000000000000000000000000000000008152600401611e3090612c46565b60405180910390fd5b80600660008481526020019081526020016000209080519060200190611e609291906121d6565b505050565b505050565b505050565b6000611e908473ffffffffffffffffffffffffffffffffffffffff166121b3565b15611ff9578373ffffffffffffffffffffffffffffffffffffffff1663150b7a02611eb96114a0565b8786866040518563ffffffff1660e01b8152600401611edb9493929190612a3d565b602060405180830381600087803b158015611ef557600080fd5b505af1925050508015611f2657506040513d601f19601f82011682018060405250810190611f239190612582565b60015b611fa9573d8060008114611f56576040519150601f19603f3d011682016040523d82523d6000602084013e611f5b565b606091505b50600081511415611fa1576040517f08c379a0000000000000000000000000000000000000000000000000000000008152600401611f9890612ac6565b60405180910390fd5b805181602001fd5b63150b7a0260e01b7bffffffffffffffffffffffffffffffffffffffffffffffffffffffff1916817bffffffffffffffffffffffffffffffffffffffffffffffffffffffff191614915050611ffe565b600190505b949350505050565b6060600082141561204e576040518060400160405280600181526020017f300000000000000000000000000000000000000000000000000000000000000081525090506121ae565b600082905060005b6000821461208057808061206990613083565b915050600a826120799190612ef8565b9150612056565b60008167ffffffffffffffff8111156120c2577f4e487b7100000000000000000000000000000000000000000000000000000000600052604160045260246000fd5b6040519080825280601f01601f1916602001820160405280156120f45781602001600182028036833780820191505090505b5090505b600085146121a75760018261210d9190612f29565b9150600a8561211c91906130cc565b60306121289190612e6b565b60f81b818381518110612164577f4e487b7100000000000000000000000000000000000000000000000000000000600052603260045260246000fd5b60200101907effffffffffffffffffffffffffffffffffffffffffffffffffffffffffffff1916908160001a905350600a856121a09190612ef8565b94506120f8565b8093505050505b919050565b6000808273ffffffffffffffffffffffffffffffffffffffff163b119050919050565b8280546121e290613020565b90600052602060002090601f016020900481019282612204576000855561224b565b82601f1061221d57805160ff191683800117855561224b565b8280016001018555821561224b579182015b8281111561224a57825182559160200191906001019061222f565b5b509050612258919061225c565b5090565b5b8082111561227557600081600090555060010161225d565b5090565b600061228c61228784612dc6565b612da1565b9050828152602081018484840111156122a457600080fd5b6122af848285612fde565b509392505050565b60006122ca6122c584612df7565b612da1565b9050828152602081018484840111156122e257600080fd5b6122ed848285612fde565b509392505050565b60008135905061230481613764565b92915050565b6000813590506123198161377b565b92915050565b60008135905061232e81613792565b92915050565b60008151905061234381613792565b92915050565b600082601f83011261235a57600080fd5b813561236a848260208601612279565b91505092915050565b600082601f83011261238457600080fd5b81356123948482602086016122b7565b91505092915050565b6000813590506123ac816137a9565b92915050565b6000602082840312156123c457600080fd5b60006123d2848285016122f5565b91505092915050565b600080604083850312156123ee57600080fd5b60006123fc858286016122f5565b925050602061240d858286016122f5565b9150509250929050565b60008060006060848603121561242c57600080fd5b600061243a868287016122f5565b935050602061244b868287016122f5565b925050604061245c8682870161239d565b9150509250925092565b6000806000806080858703121561247c57600080fd5b600061248a878288016122f5565b945050602061249b878288016122f5565b93505060406124ac8782880161239d565b925050606085013567ffffffffffffffff8111156124c957600080fd5b6124d587828801612349565b91505092959194509250565b600080604083850312156124f457600080fd5b6000612502858286016122f5565b92505060206125138582860161230a565b9150509250929050565b6000806040838503121561253057600080fd5b600061253e858286016122f5565b925050602061254f8582860161239d565b9150509250929050565b60006020828403121561256b57600080fd5b60006125798482850161231f565b91505092915050565b60006020828403121561259457600080fd5b60006125a284828501612334565b91505092915050565b6000602082840312156125bd57600080fd5b600082013567ffffffffffffffff8111156125d757600080fd5b6125e384828501612373565b91505092915050565b6000602082840312156125fe57600080fd5b600061260c8482850161239d565b91505092915050565b61261e81612f5d565b82525050565b61262d81612f6f565b82525050565b600061263e82612e28565b6126488185612e3e565b9350612658818560208601612fed565b612661816131b9565b840191505092915050565b600061267782612e33565b6126818185612e4f565b9350612691818560208601612fed565b61269a816131b9565b840191505092915050565b60006126b082612e33565b6126ba8185612e60565b93506126ca818560208601612fed565b80840191505092915050565b60006126e3603283612e4f565b91506126ee826131ca565b604082019050919050565b6000612706602683612e4f565b915061271182613219565b604082019050919050565b6000612729602583612e4f565b915061273482613268565b604082019050919050565b600061274c601c83612e4f565b9150612757826132b7565b602082019050919050565b600061276f602483612e4f565b915061277a826132e0565b604082019050919050565b6000612792601983612e4f565b915061279d8261332f565b602082019050919050565b60006127b5602c83612e4f565b91506127c082613358565b604082019050919050565b60006127d8602083612e4f565b91506127e3826133a7565b602082019050919050565b60006127fb601c83612e4f565b9150612806826133d0565b602082019050919050565b600061281e603883612e4f565b9150612829826133f9565b604082019050919050565b6000612841602a83612e4f565b915061284c82613448565b604082019050919050565b6000612864602983612e4f565b915061286f82613497565b604082019050919050565b6000612887602e83612e4f565b9150612892826134e6565b604082019050919050565b60006128aa601783612e4f565b91506128b582613535565b602082019050919050565b60006128cd602083612e4f565b91506128d88261355e565b602082019050919050565b60006128f0603183612e4f565b91506128fb82613587565b604082019050919050565b6000612913602c83612e4f565b915061291e826135d6565b604082019050919050565b6000612936602083612e4f565b915061294182613625565b602082019050919050565b6000612959602f83612e4f565b91506129648261364e565b604082019050919050565b600061297c602183612e4f565b91506129878261369d565b604082019050919050565b600061299f603183612e4f565b91506129aa826136ec565b604082019050919050565b60006129c2601f83612e4f565b91506129cd8261373b565b602082019050919050565b6129e181612fc7565b82525050565b60006129f382846126a5565b915081905092915050565b6000612a0a82856126a5565b9150612a1682846126a5565b91508190509392505050565b6000602082019050612a376000830184612615565b92915050565b6000608082019050612a526000830187612615565b612a5f6020830186612615565b612a6c60408301856129d8565b8181036060830152612a7e8184612633565b905095945050505050565b6000602082019050612a9e6000830184612624565b92915050565b60006020820190508181036000830152612abe818461266c565b905092915050565b60006020820190508181036000830152612adf816126d6565b9050919050565b60006020820190508181036000830152612aff816126f9565b9050919050565b60006020820190508181036000830152612b1f8161271c565b9050919050565b60006020820190508181036000830152612b3f8161273f565b9050919050565b60006020820190508181036000830152612b5f81612762565b9050919050565b60006020820190508181036000830152612b7f81612785565b9050919050565b60006020820190508181036000830152612b9f816127a8565b9050919050565b60006020820190508181036000830152612bbf816127cb565b9050919050565b60006020820190508181036000830152612bdf816127ee565b9050919050565b60006020820190508181036000830152612bff81612811565b9050919050565b60006020820190508181036000830152612c1f81612834565b9050919050565b60006020820190508181036000830152612c3f81612857565b9050919050565b60006020820190508181036000830152612c5f8161287a565b9050919050565b60006020820190508181036000830152612c7f8161289d565b9050919050565b60006020820190508181036000830152612c9f816128c0565b9050919050565b60006020820190508181036000830152612cbf816128e3565b9050919050565b60006020820190508181036000830152612cdf81612906565b9050919050565b60006020820190508181036000830152612cff81612929565b9050919050565b60006020820190508181036000830152612d1f8161294c565b9050919050565b60006020820190508181036000830152612d3f8161296f565b9050919050565b60006020820190508181036000830152612d5f81612992565b9050919050565b60006020820190508181036000830152612d7f816129b5565b9050919050565b6000602082019050612d9b60008301846129d8565b92915050565b6000612dab612dbc565b9050612db78282613052565b919050565b6000604051905090565b600067ffffffffffffffff821115612de157612de061318a565b5b612dea826131b9565b9050602081019050919050565b600067ffffffffffffffff821115612e1257612e1161318a565b5b612e1b826131b9565b9050602081019050919050565b600081519050919050565b600081519050919050565b600082825260208201905092915050565b600082825260208201905092915050565b600081905092915050565b6000612e7682612fc7565b9150612e8183612fc7565b9250827fffffffffffffffffffffffffffffffffffffffffffffffffffffffffffffffff03821115612eb657612eb56130fd565b5b828201905092915050565b6000612ecc82612fd1565b9150612ed783612fd1565b92508260ff03821115612eed57612eec6130fd565b5b828201905092915050565b6000612f0382612fc7565b9150612f0e83612fc7565b925082612f1e57612f1d61312c565b5b828204905092915050565b6000612f3482612fc7565b9150612f3f83612fc7565b925082821015612f5257612f516130fd565b5b828203905092915050565b6000612f6882612fa7565b9050919050565b60008115159050919050565b60007fffffffff0000000000000000000000000000000000000000000000000000000082169050919050565b600073ffffffffffffffffffffffffffffffffffffffff82169050919050565b6000819050919050565b600060ff82169050919050565b82818337600083830152505050565b60005b8381101561300b578082015181840152602081019050612ff0565b8381111561301a576000848401525b50505050565b6000600282049050600182168061303857607f821691505b6020821081141561304c5761304b61315b565b5b50919050565b61305b826131b9565b810181811067ffffffffffffffff8211171561307a5761307961318a565b5b80604052505050565b600061308e82612fc7565b91507fffffffffffffffffffffffffffffffffffffffffffffffffffffffffffffffff8214156130c1576130c06130fd565b5b600182019050919050565b60006130d782612fc7565b91506130e283612fc7565b9250826130f2576130f161312c565b5b828206905092915050565b7f4e487b7100000000000000000000000000000000000000000000000000000000600052601160045260246000fd5b7f4e487b7100000000000000000000000000000000000000000000000000000000600052601260045260246000fd5b7f4e487b7100000000000000000000000000000000000000000000000000000000600052602260045260246000fd5b7f4e487b7100000000000000000000000000000000000000000000000000000000600052604160045260246000fd5b6000601f19601f8301169050919050565b7f4552433732313a207472616e7366657220746f206e6f6e20455243373231526560008201527f63656976657220696d706c656d656e7465720000000000000000000000000000602082015250565b7f4f776e61626c653a206e6577206f776e657220697320746865207a65726f206160008201527f6464726573730000000000000000000000000000000000000000000000000000602082015250565b7f4552433732313a207472616e736665722066726f6d20696e636f72726563742060008201527f6f776e6572000000000000000000000000000000000000000000000000000000602082015250565b7f4552433732313a20746f6b656e20616c7265616479206d696e74656400000000600082015250565b7f4552433732313a207472616e7366657220746f20746865207a65726f2061646460008201527f7265737300000000000000000000000000000000000000000000000000000000602082015250565b7f4552433732313a20617070726f766520746f2063616c6c657200000000000000600082015250565b7f4552433732313a206f70657261746f7220717565727920666f72206e6f6e657860008201527f697374656e7420746f6b656e0000000000000000000000000000000000000000602082015250565b7f54686973204e4654206861732062656e6e20616c7265616479206d696e746564600082015250565b7f596f752068617665206578636565646564206d617820737570706c7900000000600082015250565b7f4552433732313a20617070726f76652063616c6c6572206973206e6f74206f7760008201527f6e6572206e6f7220617070726f76656420666f7220616c6c0000000000000000602082015250565b7f4552433732313a2062616c616e636520717565727920666f7220746865207a6560008201527f726f206164647265737300000000000000000000000000000000000000000000602082015250565b7f4552433732313a206f776e657220717565727920666f72206e6f6e657869737460008201527f656e7420746f6b656e0000000000000000000000000000000000000000000000602082015250565b7f45524337323155524953746f726167653a2055524920736574206f66206e6f6e60008201527f6578697374656e7420746f6b656e000000000000000000000000000000000000602082015250565b7f4574686572207061696420697320696e636f7272656374000000000000000000600082015250565b7f4552433732313a206d696e7420746f20746865207a65726f2061646472657373600082015250565b7f45524337323155524953746f726167653a2055524920717565727920666f722060008201527f6e6f6e6578697374656e7420746f6b656e000000000000000000000000000000602082015250565b7f4552433732313a20617070726f76656420717565727920666f72206e6f6e657860008201527f697374656e7420746f6b656e0000000000000000000000000000000000000000602082015250565b7f4f776e61626c653a2063616c6c6572206973206e6f7420746865206f776e6572600082015250565b7f4552433732314d657461646174613a2055524920717565727920666f72206e6f60008201527f6e6578697374656e7420746f6b656e0000000000000000000000000000000000602082015250565b7f4552433732313a20617070726f76616c20746f2063757272656e74206f776e6560008201527f7200000000000000000000000000000000000000000000000000000000000000602082015250565b7f4552433732313a207472616e736665722063616c6c6572206973206e6f74206f60008201527f776e6572206e6f7220617070726f766564000000000000000000000000000000602082015250565b7f596f752068617665206578636565646564206d696e74696e67206c696d697400600082015250565b61376d81612f5d565b811461377857600080fd5b50565b61378481612f6f565b811461378f57600080fd5b50565b61379b81612f7b565b81146137a657600080fd5b50565b6137b281612fc7565b81146137bd57600080fd5b5056fea26469706673582212207da48d4176fc4658e2e0074df12e020635ac4cdc3a43f60d875e92bc1087edbf64736f6c63430008020033",
  "linkReferences": {},
  "deployedLinkReferences": {}
}